{
  "_format": "hh-sol-artifact-1",
  "contractName": "Hoodles",
  "sourceName": "contracts/Hoodles.sol",
  "abi": [
    {
      "inputs": [
        {
          "internalType": "string",
          "name": "_name",
          "type": "string"
        },
        {
          "internalType": "string",
          "name": "_symbol",
          "type": "string"
        },
        {
          "internalType": "address",
          "name": "_beneficiary",
          "type": "address"
        },
        {
          "internalType": "address",
          "name": "_hoodlesTreasury",
          "type": "address"
        },
        {
          "internalType": "string",
          "name": "_initialTokenURI",
          "type": "string"
        },
        {
          "internalType": "string",
          "name": "_hiddenTokenURI",
          "type": "string"
        }
      ],
      "stateMutability": "nonpayable",
      "type": "constructor"
    },
    {
      "inputs": [],
      "name": "ApprovalCallerNotOwnerNorApproved",
      "type": "error"
    },
    {
      "inputs": [],
      "name": "ApprovalQueryForNonexistentToken",
      "type": "error"
    },
    {
      "inputs": [],
      "name": "ApprovalToCurrentOwner",
      "type": "error"
    },
    {
      "inputs": [],
      "name": "ApproveToCaller",
      "type": "error"
    },
    {
      "inputs": [],
      "name": "BalanceQueryForZeroAddress",
      "type": "error"
    },
    {
      "inputs": [],
      "name": "MintToZeroAddress",
      "type": "error"
    },
    {
      "inputs": [],
      "name": "MintZeroQuantity",
      "type": "error"
    },
    {
      "inputs": [],
      "name": "OwnerQueryForNonexistentToken",
      "type": "error"
    },
    {
      "inputs": [],
      "name": "TransferCallerNotOwnerNorApproved",
      "type": "error"
    },
    {
      "inputs": [],
      "name": "TransferFromIncorrectOwner",
      "type": "error"
    },
    {
      "inputs": [],
      "name": "TransferToNonERC721ReceiverImplementer",
      "type": "error"
    },
    {
      "inputs": [],
      "name": "TransferToZeroAddress",
      "type": "error"
    },
    {
      "anonymous": false,
      "inputs": [
        {
          "indexed": true,
          "internalType": "address",
          "name": "owner",
          "type": "address"
        },
        {
          "indexed": true,
          "internalType": "address",
          "name": "approved",
          "type": "address"
        },
        {
          "indexed": true,
          "internalType": "uint256",
          "name": "tokenId",
          "type": "uint256"
        }
      ],
      "name": "Approval",
      "type": "event"
    },
    {
      "anonymous": false,
      "inputs": [
        {
          "indexed": true,
          "internalType": "address",
          "name": "owner",
          "type": "address"
        },
        {
          "indexed": true,
          "internalType": "address",
          "name": "operator",
          "type": "address"
        },
        {
          "indexed": false,
          "internalType": "bool",
          "name": "approved",
          "type": "bool"
        }
      ],
      "name": "ApprovalForAll",
      "type": "event"
    },
    {
      "anonymous": false,
      "inputs": [
        {
          "indexed": true,
          "internalType": "address",
          "name": "previousOwner",
          "type": "address"
        },
        {
          "indexed": true,
          "internalType": "address",
          "name": "newOwner",
          "type": "address"
        }
      ],
      "name": "OwnershipTransferred",
      "type": "event"
    },
    {
      "anonymous": false,
      "inputs": [
        {
          "indexed": true,
          "internalType": "address",
          "name": "from",
          "type": "address"
        },
        {
          "indexed": true,
          "internalType": "address",
          "name": "to",
          "type": "address"
        },
        {
          "indexed": true,
          "internalType": "uint256",
          "name": "tokenId",
          "type": "uint256"
        }
      ],
      "name": "Transfer",
      "type": "event"
    },
    {
      "inputs": [],
      "name": "MAX_TOKENS",
      "outputs": [
        {
          "internalType": "uint256",
          "name": "",
          "type": "uint256"
        }
      ],
      "stateMutability": "view",
      "type": "function"
    },
    {
      "inputs": [],
      "name": "PRESALE_PURCHASE_LIMIT",
      "outputs": [
        {
          "internalType": "uint256",
          "name": "",
          "type": "uint256"
        }
      ],
      "stateMutability": "view",
      "type": "function"
    },
    {
      "inputs": [],
      "name": "PUBLIC_SALE_PURCHASE_LIMIT",
      "outputs": [
        {
          "internalType": "uint256",
          "name": "",
          "type": "uint256"
        }
      ],
      "stateMutability": "view",
      "type": "function"
    },
    {
      "inputs": [
        {
          "internalType": "address",
          "name": "to",
          "type": "address"
        },
        {
          "internalType": "uint256",
          "name": "tokenId",
          "type": "uint256"
        }
      ],
      "name": "approve",
      "outputs": [],
      "stateMutability": "nonpayable",
      "type": "function"
    },
    {
      "inputs": [
        {
          "internalType": "address",
          "name": "owner",
          "type": "address"
        }
      ],
      "name": "balanceOf",
      "outputs": [
        {
          "internalType": "uint256",
          "name": "",
          "type": "uint256"
        }
      ],
      "stateMutability": "view",
      "type": "function"
    },
    {
      "inputs": [],
      "name": "baseTokenURI",
      "outputs": [
        {
          "internalType": "string",
          "name": "",
          "type": "string"
        }
      ],
      "stateMutability": "view",
      "type": "function"
    },
    {
      "inputs": [],
      "name": "beneficiary",
      "outputs": [
        {
          "internalType": "address",
          "name": "",
          "type": "address"
        }
      ],
      "stateMutability": "view",
      "type": "function"
    },
    {
      "inputs": [
        {
          "internalType": "uint256",
          "name": "tokenId",
          "type": "uint256"
        }
      ],
      "name": "burn",
      "outputs": [],
      "stateMutability": "nonpayable",
      "type": "function"
    },
    {
      "inputs": [
        {
          "internalType": "uint256[]",
          "name": "_tokenIds",
          "type": "uint256[]"
        }
      ],
      "name": "burnSupply",
      "outputs": [],
      "stateMutability": "nonpayable",
      "type": "function"
    },
    {
      "inputs": [
        {
          "internalType": "bool",
          "name": "_state",
          "type": "bool"
        }
      ],
      "name": "changeRevealStatus",
      "outputs": [],
      "stateMutability": "nonpayable",
      "type": "function"
    },
    {
      "inputs": [],
      "name": "claimGiveaway",
      "outputs": [],
      "stateMutability": "nonpayable",
      "type": "function"
    },
    {
      "inputs": [
        {
          "internalType": "uint256",
          "name": "tokenId",
          "type": "uint256"
        }
      ],
      "name": "getApproved",
      "outputs": [
        {
          "internalType": "address",
          "name": "",
          "type": "address"
        }
      ],
      "stateMutability": "view",
      "type": "function"
    },
    {
      "inputs": [
        {
          "internalType": "uint256",
          "name": "tokenId",
          "type": "uint256"
        }
      ],
      "name": "getOwnershipData",
      "outputs": [
        {
          "components": [
            {
              "internalType": "address",
              "name": "addr",
              "type": "address"
            },
            {
              "internalType": "uint64",
              "name": "startTimestamp",
              "type": "uint64"
            },
            {
              "internalType": "bool",
              "name": "burned",
              "type": "bool"
            }
          ],
          "internalType": "struct ERC721A.TokenOwnership",
          "name": "",
          "type": "tuple"
        }
      ],
      "stateMutability": "view",
      "type": "function"
    },
    {
      "inputs": [],
      "name": "getTotalSupplyMinted",
      "outputs": [
        {
          "internalType": "uint256",
          "name": "",
          "type": "uint256"
        }
      ],
      "stateMutability": "view",
      "type": "function"
    },
    {
      "inputs": [
        {
          "internalType": "address",
          "name": "",
          "type": "address"
        }
      ],
      "name": "giveawayAddresses",
      "outputs": [
        {
          "internalType": "uint256",
          "name": "",
          "type": "uint256"
        }
      ],
      "stateMutability": "view",
      "type": "function"
    },
    {
      "inputs": [],
      "name": "hiddenTokenURI",
      "outputs": [
        {
          "internalType": "string",
          "name": "",
          "type": "string"
        }
      ],
      "stateMutability": "view",
      "type": "function"
    },
    {
      "inputs": [],
      "name": "hoodlesTreasury",
      "outputs": [
        {
          "internalType": "address",
          "name": "",
          "type": "address"
        }
      ],
      "stateMutability": "view",
      "type": "function"
    },
    {
      "inputs": [
        {
          "internalType": "address",
          "name": "owner",
          "type": "address"
        },
        {
          "internalType": "address",
          "name": "operator",
          "type": "address"
        }
      ],
      "name": "isApprovedForAll",
      "outputs": [
        {
          "internalType": "bool",
          "name": "",
          "type": "bool"
        }
      ],
      "stateMutability": "view",
      "type": "function"
    },
    {
      "inputs": [
        {
          "internalType": "address",
          "name": "",
          "type": "address"
        }
      ],
      "name": "isGiveawayClaimed",
      "outputs": [
        {
          "internalType": "bool",
          "name": "",
          "type": "bool"
        }
      ],
      "stateMutability": "view",
      "type": "function"
    },
    {
      "inputs": [],
      "name": "name",
      "outputs": [
        {
          "internalType": "string",
          "name": "",
          "type": "string"
        }
      ],
      "stateMutability": "view",
      "type": "function"
    },
    {
      "inputs": [],
      "name": "owner",
      "outputs": [
        {
          "internalType": "address",
          "name": "",
          "type": "address"
        }
      ],
      "stateMutability": "view",
      "type": "function"
    },
    {
      "inputs": [
        {
          "internalType": "uint256",
          "name": "tokenId",
          "type": "uint256"
        }
      ],
      "name": "ownerOf",
      "outputs": [
        {
          "internalType": "address",
          "name": "",
          "type": "address"
        }
      ],
      "stateMutability": "view",
      "type": "function"
    },
    {
      "inputs": [],
      "name": "presaleActive",
      "outputs": [
        {
          "internalType": "bool",
          "name": "",
          "type": "bool"
        }
      ],
      "stateMutability": "view",
      "type": "function"
    },
    {
      "inputs": [
        {
          "internalType": "address",
          "name": "",
          "type": "address"
        }
      ],
      "name": "presaleAddresses",
      "outputs": [
        {
          "internalType": "bool",
          "name": "",
          "type": "bool"
        }
      ],
      "stateMutability": "view",
      "type": "function"
    },
    {
      "inputs": [
        {
          "internalType": "address",
          "name": "",
          "type": "address"
        }
      ],
      "name": "presaleClaimed",
      "outputs": [
        {
          "internalType": "uint256",
          "name": "",
          "type": "uint256"
        }
      ],
      "stateMutability": "view",
      "type": "function"
    },
    {
      "inputs": [
        {
          "internalType": "uint256",
          "name": "numOfTokens",
          "type": "uint256"
        }
      ],
      "name": "presaleMint",
      "outputs": [],
      "stateMutability": "payable",
      "type": "function"
    },
    {
      "inputs": [],
      "name": "publicSaleActive",
      "outputs": [
        {
          "internalType": "bool",
          "name": "",
          "type": "bool"
        }
      ],
      "stateMutability": "view",
      "type": "function"
    },
    {
      "inputs": [
        {
          "internalType": "address",
          "name": "",
          "type": "address"
        }
      ],
      "name": "publicSaleClaimed",
      "outputs": [
        {
          "internalType": "uint256",
          "name": "",
          "type": "uint256"
        }
      ],
      "stateMutability": "view",
      "type": "function"
    },
    {
      "inputs": [
        {
          "internalType": "uint256",
          "name": "numOfTokens",
          "type": "uint256"
        }
      ],
      "name": "publicSaleMint",
      "outputs": [],
      "stateMutability": "payable",
      "type": "function"
    },
    {
      "inputs": [],
      "name": "renounceOwnership",
      "outputs": [],
      "stateMutability": "nonpayable",
      "type": "function"
    },
    {
      "inputs": [],
      "name": "revealStatus",
      "outputs": [
        {
          "internalType": "bool",
          "name": "",
          "type": "bool"
        }
      ],
      "stateMutability": "view",
      "type": "function"
    },
    {
      "inputs": [
        {
          "internalType": "address",
          "name": "from",
          "type": "address"
        },
        {
          "internalType": "address",
          "name": "to",
          "type": "address"
        },
        {
          "internalType": "uint256",
          "name": "tokenId",
          "type": "uint256"
        }
      ],
      "name": "safeTransferFrom",
      "outputs": [],
      "stateMutability": "nonpayable",
      "type": "function"
    },
    {
      "inputs": [
        {
          "internalType": "address",
          "name": "from",
          "type": "address"
        },
        {
          "internalType": "address",
          "name": "to",
          "type": "address"
        },
        {
          "internalType": "uint256",
          "name": "tokenId",
          "type": "uint256"
        },
        {
          "internalType": "bytes",
          "name": "_data",
          "type": "bytes"
        }
      ],
      "name": "safeTransferFrom",
      "outputs": [],
      "stateMutability": "nonpayable",
      "type": "function"
    },
    {
      "inputs": [
        {
          "internalType": "address",
          "name": "operator",
          "type": "address"
        },
        {
          "internalType": "bool",
          "name": "approved",
          "type": "bool"
        }
      ],
      "name": "setApprovalForAll",
      "outputs": [],
      "stateMutability": "nonpayable",
      "type": "function"
    },
    {
      "inputs": [
        {
          "internalType": "string",
          "name": "newBaseURI",
          "type": "string"
        }
      ],
      "name": "setBaseURI",
      "outputs": [],
      "stateMutability": "nonpayable",
      "type": "function"
    },
    {
      "inputs": [
        {
          "internalType": "address[]",
          "name": "_addresses",
          "type": "address[]"
        },
        {
          "internalType": "uint256[]",
          "name": "_tokenAmounts",
          "type": "uint256[]"
        }
      ],
      "name": "setGiveawayAddresses",
      "outputs": [],
      "stateMutability": "nonpayable",
      "type": "function"
    },
    {
      "inputs": [
        {
          "internalType": "address[]",
          "name": "_addresses",
          "type": "address[]"
        }
      ],
      "name": "setPresaleAddresses",
      "outputs": [],
      "stateMutability": "nonpayable",
      "type": "function"
    },
    {
      "inputs": [
        {
          "internalType": "bool",
          "name": "_state",
          "type": "bool"
        }
      ],
      "name": "setPresaleStatus",
      "outputs": [],
      "stateMutability": "nonpayable",
      "type": "function"
    },
    {
      "inputs": [
        {
          "internalType": "bool",
          "name": "_state",
          "type": "bool"
        }
      ],
      "name": "setPublicSaleStatus",
      "outputs": [],
      "stateMutability": "nonpayable",
      "type": "function"
    },
    {
      "inputs": [
        {
          "internalType": "bytes4",
          "name": "interfaceId",
          "type": "bytes4"
        }
      ],
      "name": "supportsInterface",
      "outputs": [
        {
          "internalType": "bool",
          "name": "",
          "type": "bool"
        }
      ],
      "stateMutability": "view",
      "type": "function"
    },
    {
      "inputs": [],
      "name": "symbol",
      "outputs": [
        {
          "internalType": "string",
          "name": "",
          "type": "string"
        }
      ],
      "stateMutability": "view",
      "type": "function"
    },
    {
      "inputs": [],
      "name": "tokenPrice",
      "outputs": [
        {
          "internalType": "uint256",
          "name": "",
          "type": "uint256"
        }
      ],
      "stateMutability": "view",
      "type": "function"
    },
    {
      "inputs": [
        {
          "internalType": "uint256",
          "name": "_tokenId",
          "type": "uint256"
        }
      ],
      "name": "tokenURI",
      "outputs": [
        {
          "internalType": "string",
          "name": "",
          "type": "string"
        }
      ],
      "stateMutability": "view",
      "type": "function"
    },
    {
      "inputs": [],
      "name": "totalSupply",
      "outputs": [
        {
          "internalType": "uint256",
          "name": "",
          "type": "uint256"
        }
      ],
      "stateMutability": "view",
      "type": "function"
    },
    {
      "inputs": [
        {
          "internalType": "address",
          "name": "from",
          "type": "address"
        },
        {
          "internalType": "address",
          "name": "to",
          "type": "address"
        },
        {
          "internalType": "uint256",
          "name": "tokenId",
          "type": "uint256"
        }
      ],
      "name": "transferFrom",
      "outputs": [],
      "stateMutability": "nonpayable",
      "type": "function"
    },
    {
      "inputs": [
        {
          "internalType": "address",
          "name": "newOwner",
          "type": "address"
        }
      ],
      "name": "transferOwnership",
      "outputs": [],
      "stateMutability": "nonpayable",
      "type": "function"
    },
    {
      "inputs": [],
      "name": "withdraw",
      "outputs": [],
      "stateMutability": "nonpayable",
      "type": "function"
    }
  ],
  "bytecode": "0x608060405266f8b0a10e470000600a553480156200001c57600080fd5b50604051620056ff380380620056ff83398181016040528101906200004291906200037f565b858562000064620000586200017560201b60201c565b6200017d60201b60201c565b6001808190555081600490805190602001906200008392919062000246565b5080600590805190602001906200009c92919062000246565b50620000ad6200024160201b60201c565b600281905550505083600c60006101000a81548173ffffffffffffffffffffffffffffffffffffffff021916908373ffffffffffffffffffffffffffffffffffffffff16021790555082600b60036101000a81548173ffffffffffffffffffffffffffffffffffffffff021916908373ffffffffffffffffffffffffffffffffffffffff16021790555081601290805190602001906200014f92919062000246565b5080601390805190602001906200016892919062000246565b5050505050505062000637565b600033905090565b60008060009054906101000a900473ffffffffffffffffffffffffffffffffffffffff169050816000806101000a81548173ffffffffffffffffffffffffffffffffffffffff021916908373ffffffffffffffffffffffffffffffffffffffff1602179055508173ffffffffffffffffffffffffffffffffffffffff168173ffffffffffffffffffffffffffffffffffffffff167f8be0079c531659141344cd1fd0a4f28419497f9722a3daafe3b4186f6b6457e060405160405180910390a35050565b600090565b828054620002549062000542565b90600052602060002090601f016020900481019282620002785760008555620002c4565b82601f106200029357805160ff1916838001178555620002c4565b82800160010185558215620002c4579182015b82811115620002c3578251825591602001919060010190620002a6565b5b509050620002d39190620002d7565b5090565b5b80821115620002f2576000816000905550600101620002d8565b5090565b60006200030d6200030784620004a2565b62000479565b9050828152602081018484840111156200032657600080fd5b620003338482856200050c565b509392505050565b6000815190506200034c816200061d565b92915050565b600082601f8301126200036457600080fd5b815162000376848260208601620002f6565b91505092915050565b60008060008060008060c087890312156200039957600080fd5b600087015167ffffffffffffffff811115620003b457600080fd5b620003c289828a0162000352565b965050602087015167ffffffffffffffff811115620003e057600080fd5b620003ee89828a0162000352565b95505060406200040189828a016200033b565b94505060606200041489828a016200033b565b935050608087015167ffffffffffffffff8111156200043257600080fd5b6200044089828a0162000352565b92505060a087015167ffffffffffffffff8111156200045e57600080fd5b6200046c89828a0162000352565b9150509295509295509295565b60006200048562000498565b905062000493828262000578565b919050565b6000604051905090565b600067ffffffffffffffff821115620004c057620004bf620005dd565b5b620004cb826200060c565b9050602081019050919050565b6000620004e582620004ec565b9050919050565b600073ffffffffffffffffffffffffffffffffffffffff82169050919050565b60005b838110156200052c5780820151818401526020810190506200050f565b838111156200053c576000848401525b50505050565b600060028204905060018216806200055b57607f821691505b60208210811415620005725762000571620005ae565b5b50919050565b62000583826200060c565b810181811067ffffffffffffffff82111715620005a557620005a4620005dd565b5b80604052505050565b7f4e487b7100000000000000000000000000000000000000000000000000000000600052602260045260246000fd5b7f4e487b7100000000000000000000000000000000000000000000000000000000600052604160045260246000fd5b6000601f19601f8301169050919050565b6200062881620004d8565b81146200063457600080fd5b50565b6150b880620006476000396000f3fe6080604052600436106102885760003560e01c8063715018a61161015a578063b88d4fde116100c1578063d547cfb71161007a578063d547cfb7146109b0578063e985e9c5146109db578063ec83ebbd14610a18578063f2fde38b14610a43578063f47c84c514610a6c578063f9765bc114610a9757610288565b8063b88d4fde1461089d578063bc5d36b0146108c6578063bc8893b4146108ef578063c87b56dd1461091a578063c9b298f114610957578063d3c553ad1461097357610288565b806395d89b411161011357806395d89b41146107b05780639ab6f6c9146107db578063a22cb46514610804578063b19a13ee1461082d578063b3ab66b014610858578063b423fe671461087457610288565b8063715018a6146106b45780637ff9b596146106cb5780638895283f146106f65780638da5cb5b1461071f5780639231ab2a1461074a578063949028a71461078757610288565b806342842e0e116101fe5780635e7a79cd116101b75780635e7a79cd1461056a57806362d0f657146105a75780636352211e146105d257806364d30f551461060f57806366fca9801461063a57806370a082311461067757610288565b806342842e0e1461048257806342966c68146104ab5780634af9bc10146104d457806353135ca0146104eb57806355f804b31461051657806356f5ab861461053f57610288565b806323b872dd1161025057806323b872dd14610386578063263e4f5e146103af57806338af3eed146103da5780633ccfd60b146104055780633ff35a4f1461041c5780634001d92c1461044557610288565b806301ffc9a71461028d57806306fdde03146102ca578063081812fc146102f5578063095ea7b31461033257806318160ddd1461035b575b600080fd5b34801561029957600080fd5b506102b460048036038101906102af9190614200565b610ad4565b6040516102c19190614700565b60405180910390f35b3480156102d657600080fd5b506102df610bb6565b6040516102ec919061471b565b60405180910390f35b34801561030157600080fd5b5061031c60048036038101906103179190614297565b610c48565b6040516103299190614699565b60405180910390f35b34801561033e57600080fd5b50610359600480360381019061035491906140ad565b610cc4565b005b34801561036757600080fd5b50610370610dcf565b60405161037d9190614918565b60405180910390f35b34801561039257600080fd5b506103ad60048036038101906103a89190613fa7565b610de6565b005b3480156103bb57600080fd5b506103c4610df6565b6040516103d19190614700565b60405180910390f35b3480156103e657600080fd5b506103ef610e09565b6040516103fc9190614699565b60405180910390f35b34801561041157600080fd5b5061041a610e2f565b005b34801561042857600080fd5b50610443600480360381019061043e91906140e9565b610f59565b005b34801561045157600080fd5b5061046c60048036038101906104679190613f42565b611090565b6040516104799190614918565b60405180910390f35b34801561048e57600080fd5b506104a960048036038101906104a49190613fa7565b6110a8565b005b3480156104b757600080fd5b506104d260048036038101906104cd9190614297565b6110c8565b005b3480156104e057600080fd5b506104e96111b9565b005b3480156104f757600080fd5b5061050061133e565b60405161050d9190614700565b60405180910390f35b34801561052257600080fd5b5061053d60048036038101906105389190614252565b611351565b005b34801561054b57600080fd5b506105546113e3565b6040516105619190614918565b60405180910390f35b34801561057657600080fd5b50610591600480360381019061058c9190613f42565b6113e8565b60405161059e9190614700565b60405180910390f35b3480156105b357600080fd5b506105bc611408565b6040516105c99190614918565b60405180910390f35b3480156105de57600080fd5b506105f960048036038101906105f49190614297565b61140d565b6040516106069190614699565b60405180910390f35b34801561061b57600080fd5b50610624611423565b6040516106319190614918565b60405180910390f35b34801561064657600080fd5b50610661600480360381019061065c9190613f42565b611432565b60405161066e9190614700565b60405180910390f35b34801561068357600080fd5b5061069e60048036038101906106999190613f42565b611452565b6040516106ab9190614918565b60405180910390f35b3480156106c057600080fd5b506106c9611522565b005b3480156106d757600080fd5b506106e06115aa565b6040516106ed9190614918565b60405180910390f35b34801561070257600080fd5b5061071d600480360381019061071891906141d7565b6115b0565b005b34801561072b57600080fd5b50610734611664565b6040516107419190614699565b60405180910390f35b34801561075657600080fd5b50610771600480360381019061076c9190614297565b61168d565b60405161077e91906148fd565b60405180910390f35b34801561079357600080fd5b506107ae60048036038101906107a991906141d7565b6116a5565b005b3480156107bc57600080fd5b506107c561173e565b6040516107d2919061471b565b60405180910390f35b3480156107e757600080fd5b5061080260048036038101906107fd919061412a565b6117d0565b005b34801561081057600080fd5b5061082b60048036038101906108269190614071565b611978565b005b34801561083957600080fd5b50610842611af0565b60405161084f9190614699565b60405180910390f35b610872600480360381019061086d9190614297565b611b16565b005b34801561088057600080fd5b5061089b600480360381019061089691906141d7565b611e28565b005b3480156108a957600080fd5b506108c460048036038101906108bf9190613ff6565b611edc565b005b3480156108d257600080fd5b506108ed60048036038101906108e89190614196565b611f58565b005b3480156108fb57600080fd5b50610904612040565b6040516109119190614700565b60405180910390f35b34801561092657600080fd5b50610941600480360381019061093c9190614297565b612053565b60405161094e919061471b565b60405180910390f35b610971600480360381019061096c9190614297565b612156565b005b34801561097f57600080fd5b5061099a60048036038101906109959190613f42565b61249d565b6040516109a79190614918565b60405180910390f35b3480156109bc57600080fd5b506109c56124b5565b6040516109d2919061471b565b60405180910390f35b3480156109e757600080fd5b50610a0260048036038101906109fd9190613f6b565b612543565b604051610a0f9190614700565b60405180910390f35b348015610a2457600080fd5b50610a2d6125d7565b604051610a3a919061471b565b60405180910390f35b348015610a4f57600080fd5b50610a6a6004803603810190610a659190613f42565b612665565b005b348015610a7857600080fd5b50610a8161275d565b604051610a8e9190614918565b60405180910390f35b348015610aa357600080fd5b50610abe6004803603810190610ab99190613f42565b612763565b604051610acb9190614918565b60405180910390f35b60007f80ac58cd000000000000000000000000000000000000000000000000000000007bffffffffffffffffffffffffffffffffffffffffffffffffffffffff1916827bffffffffffffffffffffffffffffffffffffffffffffffffffffffff19161480610b9f57507f5b5e139f000000000000000000000000000000000000000000000000000000007bffffffffffffffffffffffffffffffffffffffffffffffffffffffff1916827bffffffffffffffffffffffffffffffffffffffffffffffffffffffff1916145b80610baf5750610bae8261277b565b5b9050919050565b606060048054610bc590614c18565b80601f0160208091040260200160405190810160405280929190818152602001828054610bf190614c18565b8015610c3e5780601f10610c1357610100808354040283529160200191610c3e565b820191906000526020600020905b815481529060010190602001808311610c2157829003601f168201915b5050505050905090565b6000610c53826127e5565b610c89576040517fcf4700e400000000000000000000000000000000000000000000000000000000815260040160405180910390fd5b6008600083815260200190815260200160002060009054906101000a900473ffffffffffffffffffffffffffffffffffffffff169050919050565b6000610ccf8261140d565b90508073ffffffffffffffffffffffffffffffffffffffff168373ffffffffffffffffffffffffffffffffffffffff161415610d37576040517f943f7b8c00000000000000000000000000000000000000000000000000000000815260040160405180910390fd5b8073ffffffffffffffffffffffffffffffffffffffff16610d56612833565b73ffffffffffffffffffffffffffffffffffffffff1614158015610d885750610d8681610d81612833565b612543565b155b15610dbf576040517fcfb3b94200000000000000000000000000000000000000000000000000000000815260040160405180910390fd5b610dca83838361283b565b505050565b6000610dd96128ed565b6003546002540303905090565b610df18383836128f2565b505050565b600b60009054906101000a900460ff1681565b600c60009054906101000a900473ffffffffffffffffffffffffffffffffffffffff1681565b610e37612833565b73ffffffffffffffffffffffffffffffffffffffff16610e55611664565b73ffffffffffffffffffffffffffffffffffffffff1614610eab576040517f08c379a0000000000000000000000000000000000000000000000000000000008152600401610ea29061481d565b60405180910390fd5b60004711610eee576040517f08c379a0000000000000000000000000000000000000000000000000000000008152600401610ee5906148dd565b60405180910390fd5b600c60009054906101000a900473ffffffffffffffffffffffffffffffffffffffff1673ffffffffffffffffffffffffffffffffffffffff166108fc479081150290604051600060405180830381858888f19350505050158015610f56573d6000803e3d6000fd5b50565b610f61612833565b73ffffffffffffffffffffffffffffffffffffffff16610f7f611664565b73ffffffffffffffffffffffffffffffffffffffff1614610fd5576040517f08c379a0000000000000000000000000000000000000000000000000000000008152600401610fcc9061481d565b60405180910390fd5b60005b815181101561108c57600160116000848481518110611020577f4e487b7100000000000000000000000000000000000000000000000000000000600052603260045260246000fd5b602002602001015173ffffffffffffffffffffffffffffffffffffffff1673ffffffffffffffffffffffffffffffffffffffff16815260200190815260200160002060006101000a81548160ff021916908315150217905550808061108490614c7b565b915050610fd8565b5050565b60106020528060005260406000206000915090505481565b6110c383838360405180602001604052806000815250611edc565b505050565b60006110d382612de3565b90506000816000015173ffffffffffffffffffffffffffffffffffffffff166110fa612833565b73ffffffffffffffffffffffffffffffffffffffff16148061112d575061112c8260000151611127612833565b612543565b5b80611172575061113b612833565b73ffffffffffffffffffffffffffffffffffffffff1661115a84610c48565b73ffffffffffffffffffffffffffffffffffffffff16145b9050806111ab576040517f59c896be00000000000000000000000000000000000000000000000000000000815260040160405180910390fd5b6111b483613072565b505050565b600260015414156111ff576040517f08c379a00000000000000000000000000000000000000000000000000000000081526004016111f69061489d565b60405180910390fd5b6002600181905550600f60003373ffffffffffffffffffffffffffffffffffffffff1673ffffffffffffffffffffffffffffffffffffffff16815260200190815260200160002060009054906101000a900460ff1615611294576040517f08c379a000000000000000000000000000000000000000000000000000000000815260040161128b9061475d565b60405180910390fd5b6001600f60003373ffffffffffffffffffffffffffffffffffffffff1673ffffffffffffffffffffffffffffffffffffffff16815260200190815260200160002060006101000a81548160ff02191690831515021790555061133533601060003373ffffffffffffffffffffffffffffffffffffffff1673ffffffffffffffffffffffffffffffffffffffff16815260200190815260200160002054613416565b60018081905550565b600b60019054906101000a900460ff1681565b611359612833565b73ffffffffffffffffffffffffffffffffffffffff16611377611664565b73ffffffffffffffffffffffffffffffffffffffff16146113cd576040517f08c379a00000000000000000000000000000000000000000000000000000000081526004016113c49061481d565b60405180910390fd5b8181601291906113de929190613c15565b505050565b600681565b600f6020528060005260406000206000915054906101000a900460ff1681565b600481565b600061141882612de3565b600001519050919050565b600061142d610dcf565b905090565b60116020528060005260406000206000915054906101000a900460ff1681565b60008073ffffffffffffffffffffffffffffffffffffffff168273ffffffffffffffffffffffffffffffffffffffff1614156114ba576040517f8f4eb60400000000000000000000000000000000000000000000000000000000815260040160405180910390fd5b600760008373ffffffffffffffffffffffffffffffffffffffff1673ffffffffffffffffffffffffffffffffffffffff16815260200190815260200160002060000160009054906101000a900467ffffffffffffffff1667ffffffffffffffff169050919050565b61152a612833565b73ffffffffffffffffffffffffffffffffffffffff16611548611664565b73ffffffffffffffffffffffffffffffffffffffff161461159e576040517f08c379a00000000000000000000000000000000000000000000000000000000081526004016115959061481d565b60405180910390fd5b6115a86000613434565b565b600a5481565b6115b8612833565b73ffffffffffffffffffffffffffffffffffffffff166115d6611664565b73ffffffffffffffffffffffffffffffffffffffff161461162c576040517f08c379a00000000000000000000000000000000000000000000000000000000081526004016116239061481d565b60405180910390fd5b80600b60016101000a81548160ff0219169083151502179055506000600b60026101000a81548160ff02191690831515021790555050565b60008060009054906101000a900473ffffffffffffffffffffffffffffffffffffffff16905090565b611695613c9b565b61169e82612de3565b9050919050565b6116ad612833565b73ffffffffffffffffffffffffffffffffffffffff166116cb611664565b73ffffffffffffffffffffffffffffffffffffffff1614611721576040517f08c379a00000000000000000000000000000000000000000000000000000000081526004016117189061481d565b60405180910390fd5b80600b60006101000a81548160ff02191690831515021790555050565b60606005805461174d90614c18565b80601f016020809104026020016040519081016040528092919081815260200182805461177990614c18565b80156117c65780601f1061179b576101008083540402835291602001916117c6565b820191906000526020600020905b8154815290600101906020018083116117a957829003601f168201915b5050505050905090565b6117d8612833565b73ffffffffffffffffffffffffffffffffffffffff166117f6611664565b73ffffffffffffffffffffffffffffffffffffffff161461184c576040517f08c379a00000000000000000000000000000000000000000000000000000000081526004016118439061481d565b60405180910390fd5b8051825114611890576040517f08c379a00000000000000000000000000000000000000000000000000000000081526004016118879061485d565b60405180910390fd5b60005b8251811015611973578181815181106118d5577f4e487b7100000000000000000000000000000000000000000000000000000000600052603260045260246000fd5b60200260200101516010600085848151811061191a577f4e487b7100000000000000000000000000000000000000000000000000000000600052603260045260246000fd5b602002602001015173ffffffffffffffffffffffffffffffffffffffff1673ffffffffffffffffffffffffffffffffffffffff16815260200190815260200160002081905550808061196b90614c7b565b915050611893565b505050565b611980612833565b73ffffffffffffffffffffffffffffffffffffffff168273ffffffffffffffffffffffffffffffffffffffff1614156119e5576040517fb06307db00000000000000000000000000000000000000000000000000000000815260040160405180910390fd5b80600960006119f2612833565b73ffffffffffffffffffffffffffffffffffffffff1673ffffffffffffffffffffffffffffffffffffffff16815260200190815260200160002060008473ffffffffffffffffffffffffffffffffffffffff1673ffffffffffffffffffffffffffffffffffffffff16815260200190815260200160002060006101000a81548160ff0219169083151502179055508173ffffffffffffffffffffffffffffffffffffffff16611a9f612833565b73ffffffffffffffffffffffffffffffffffffffff167f17307eab39ab6107e8899845ad3d59bd9653f200f220920489ca2b5937696c3183604051611ae49190614700565b60405180910390a35050565b600b60039054906101000a900473ffffffffffffffffffffffffffffffffffffffff1681565b60026001541415611b5c576040517f08c379a0000000000000000000000000000000000000000000000000000000008152600401611b539061489d565b60405180910390fd5b6002600181905550600b60029054906101000a900460ff16611bb3576040517f08c379a0000000000000000000000000000000000000000000000000000000008152600401611baa906147fd565b60405180910390fd5b3273ffffffffffffffffffffffffffffffffffffffff163373ffffffffffffffffffffffffffffffffffffffff1614611c21576040517f08c379a0000000000000000000000000000000000000000000000000000000008152600401611c18906147bd565b60405180910390fd5b610d0581611c2d610dcf565b611c379190614a39565b1115611c78576040517f08c379a0000000000000000000000000000000000000000000000000000000008152600401611c6f906148bd565b60405180910390fd5b34600a5482611c879190614ac0565b14611cc7576040517f08c379a0000000000000000000000000000000000000000000000000000000008152600401611cbe9061487d565b60405180910390fd5b600681600e60003373ffffffffffffffffffffffffffffffffffffffff1673ffffffffffffffffffffffffffffffffffffffff16815260200190815260200160002054611d149190614a39565b1115611d55576040517f08c379a0000000000000000000000000000000000000000000000000000000008152600401611d4c9061477d565b60405180910390fd5b80600e60003373ffffffffffffffffffffffffffffffffffffffff1673ffffffffffffffffffffffffffffffffffffffff1681526020019081526020016000206000828254611da49190614a39565b92505081905550611db53382613416565b600c60009054906101000a900473ffffffffffffffffffffffffffffffffffffffff1673ffffffffffffffffffffffffffffffffffffffff166108fc349081150290604051600060405180830381858888f19350505050158015611e1d573d6000803e3d6000fd5b506001808190555050565b611e30612833565b73ffffffffffffffffffffffffffffffffffffffff16611e4e611664565b73ffffffffffffffffffffffffffffffffffffffff1614611ea4576040517f08c379a0000000000000000000000000000000000000000000000000000000008152600401611e9b9061481d565b60405180910390fd5b6000600b60016101000a81548160ff02191690831515021790555080600b60026101000a81548160ff02191690831515021790555050565b611ee78484846128f2565b611f068373ffffffffffffffffffffffffffffffffffffffff166134f8565b8015611f1b5750611f198484848461351b565b155b15611f52576040517fd1a57ed600000000000000000000000000000000000000000000000000000000815260040160405180910390fd5b50505050565b611f60612833565b73ffffffffffffffffffffffffffffffffffffffff16611f7e611664565b73ffffffffffffffffffffffffffffffffffffffff1614611fd4576040517f08c379a0000000000000000000000000000000000000000000000000000000008152600401611fcb9061481d565b60405180910390fd5b60005b815181101561203c5761202982828151811061201c577f4e487b7100000000000000000000000000000000000000000000000000000000600052603260045260246000fd5b60200260200101516110c8565b808061203490614c7b565b915050611fd7565b5050565b600b60029054906101000a900460ff1681565b606060006040518060400160405280600581526020017f2e6a736f6e0000000000000000000000000000000000000000000000000000008152509050612098836127e5565b6120d7576040517f08c379a00000000000000000000000000000000000000000000000000000000081526004016120ce9061483d565b60405180910390fd5b600b60009054906101000a900460ff166121205760136120f68461367b565b8260405160200161210993929190614668565b604051602081830303815290604052915050612151565b601261212b8461367b565b8260405160200161213e93929190614668565b6040516020818303038152906040529150505b919050565b6002600154141561219c576040517f08c379a00000000000000000000000000000000000000000000000000000000081526004016121939061489d565b60405180910390fd5b6002600181905550600b60019054906101000a900460ff166121f3576040517f08c379a00000000000000000000000000000000000000000000000000000000081526004016121ea9061479d565b60405180910390fd5b3273ffffffffffffffffffffffffffffffffffffffff163373ffffffffffffffffffffffffffffffffffffffff1614612261576040517f08c379a0000000000000000000000000000000000000000000000000000000008152600401612258906147bd565b60405180910390fd5b601160003373ffffffffffffffffffffffffffffffffffffffff1673ffffffffffffffffffffffffffffffffffffffff16815260200190815260200160002060009054906101000a900460ff166122ed576040517f08c379a00000000000000000000000000000000000000000000000000000000081526004016122e4906147dd565b60405180910390fd5b600481600d60003373ffffffffffffffffffffffffffffffffffffffff1673ffffffffffffffffffffffffffffffffffffffff1681526020019081526020016000205461233a9190614a39565b111561237b576040517f08c379a00000000000000000000000000000000000000000000000000000000081526004016123729061477d565b60405180910390fd5b34600a548261238a9190614ac0565b146123ca576040517f08c379a00000000000000000000000000000000000000000000000000000000081526004016123c19061487d565b60405180910390fd5b80600d60003373ffffffffffffffffffffffffffffffffffffffff1673ffffffffffffffffffffffffffffffffffffffff16815260200190815260200160002060008282546124199190614a39565b9250508190555061242a3382613416565b600c60009054906101000a900473ffffffffffffffffffffffffffffffffffffffff1673ffffffffffffffffffffffffffffffffffffffff166108fc349081150290604051600060405180830381858888f19350505050158015612492573d6000803e3d6000fd5b506001808190555050565b600e6020528060005260406000206000915090505481565b601280546124c290614c18565b80601f01602080910402602001604051908101604052809291908181526020018280546124ee90614c18565b801561253b5780601f106125105761010080835404028352916020019161253b565b820191906000526020600020905b81548152906001019060200180831161251e57829003601f168201915b505050505081565b6000600960008473ffffffffffffffffffffffffffffffffffffffff1673ffffffffffffffffffffffffffffffffffffffff16815260200190815260200160002060008373ffffffffffffffffffffffffffffffffffffffff1673ffffffffffffffffffffffffffffffffffffffff16815260200190815260200160002060009054906101000a900460ff16905092915050565b601380546125e490614c18565b80601f016020809104026020016040519081016040528092919081815260200182805461261090614c18565b801561265d5780601f106126325761010080835404028352916020019161265d565b820191906000526020600020905b81548152906001019060200180831161264057829003601f168201915b505050505081565b61266d612833565b73ffffffffffffffffffffffffffffffffffffffff1661268b611664565b73ffffffffffffffffffffffffffffffffffffffff16146126e1576040517f08c379a00000000000000000000000000000000000000000000000000000000081526004016126d89061481d565b60405180910390fd5b600073ffffffffffffffffffffffffffffffffffffffff168173ffffffffffffffffffffffffffffffffffffffff161415612751576040517f08c379a00000000000000000000000000000000000000000000000000000000081526004016127489061473d565b60405180910390fd5b61275a81613434565b50565b610d0581565b600d6020528060005260406000206000915090505481565b60007f01ffc9a7000000000000000000000000000000000000000000000000000000007bffffffffffffffffffffffffffffffffffffffffffffffffffffffff1916827bffffffffffffffffffffffffffffffffffffffffffffffffffffffff1916149050919050565b6000816127f06128ed565b111580156127ff575060025482105b801561282c575060066000838152602001908152602001600020600001601c9054906101000a900460ff16155b9050919050565b600033905090565b826008600084815260200190815260200160002060006101000a81548173ffffffffffffffffffffffffffffffffffffffff021916908373ffffffffffffffffffffffffffffffffffffffff160217905550818373ffffffffffffffffffffffffffffffffffffffff168273ffffffffffffffffffffffffffffffffffffffff167f8c5be1e5ebec7d5bd14f71427d1e84f3dd0314c0f7b2291e5b200ac8c7c3b92560405160405180910390a4505050565b600090565b60006128fd82612de3565b90506000816000015173ffffffffffffffffffffffffffffffffffffffff16612924612833565b73ffffffffffffffffffffffffffffffffffffffff16148061295757506129568260000151612951612833565b612543565b5b8061299c5750612965612833565b73ffffffffffffffffffffffffffffffffffffffff1661298484610c48565b73ffffffffffffffffffffffffffffffffffffffff16145b9050806129d5576040517f59c896be00000000000000000000000000000000000000000000000000000000815260040160405180910390fd5b8473ffffffffffffffffffffffffffffffffffffffff16826000015173ffffffffffffffffffffffffffffffffffffffff1614612a3e576040517fa114810000000000000000000000000000000000000000000000000000000000815260040160405180910390fd5b600073ffffffffffffffffffffffffffffffffffffffff168473ffffffffffffffffffffffffffffffffffffffff161415612aa5576040517fea553b3400000000000000000000000000000000000000000000000000000000815260040160405180910390fd5b612ab28585856001613828565b612ac2600084846000015161283b565b6001600760008773ffffffffffffffffffffffffffffffffffffffff1673ffffffffffffffffffffffffffffffffffffffff16815260200190815260200160002060000160008282829054906101000a900467ffffffffffffffff160392506101000a81548167ffffffffffffffff021916908367ffffffffffffffff1602179055506001600760008673ffffffffffffffffffffffffffffffffffffffff1673ffffffffffffffffffffffffffffffffffffffff16815260200190815260200160002060000160008282829054906101000a900467ffffffffffffffff160192506101000a81548167ffffffffffffffff021916908367ffffffffffffffff160217905550836006600085815260200190815260200160002060000160006101000a81548173ffffffffffffffffffffffffffffffffffffffff021916908373ffffffffffffffffffffffffffffffffffffffff160217905550426006600085815260200190815260200160002060000160146101000a81548167ffffffffffffffff021916908367ffffffffffffffff1602179055506000600184019050600073ffffffffffffffffffffffffffffffffffffffff166006600083815260200190815260200160002060000160009054906101000a900473ffffffffffffffffffffffffffffffffffffffff1673ffffffffffffffffffffffffffffffffffffffff161415612d7357600254811015612d725782600001516006600083815260200190815260200160002060000160006101000a81548173ffffffffffffffffffffffffffffffffffffffff021916908373ffffffffffffffffffffffffffffffffffffffff16021790555082602001516006600083815260200190815260200160002060000160146101000a81548167ffffffffffffffff021916908367ffffffffffffffff1602179055505b5b50828473ffffffffffffffffffffffffffffffffffffffff168673ffffffffffffffffffffffffffffffffffffffff167fddf252ad1be2c89b69c2b068fc378daa952ba7f163c4a11628f55a4df523b3ef60405160405180910390a4612ddc858585600161382e565b5050505050565b612deb613c9b565b600082905080612df96128ed565b11158015612e08575060025481105b1561303b576000600660008381526020019081526020016000206040518060600160405290816000820160009054906101000a900473ffffffffffffffffffffffffffffffffffffffff1673ffffffffffffffffffffffffffffffffffffffff1673ffffffffffffffffffffffffffffffffffffffff1681526020016000820160149054906101000a900467ffffffffffffffff1667ffffffffffffffff1667ffffffffffffffff16815260200160008201601c9054906101000a900460ff1615151515815250509050806040015161303957600073ffffffffffffffffffffffffffffffffffffffff16816000015173ffffffffffffffffffffffffffffffffffffffff1614612f1d57809250505061306d565b5b60011561303857818060019003925050600660008381526020019081526020016000206040518060600160405290816000820160009054906101000a900473ffffffffffffffffffffffffffffffffffffffff1673ffffffffffffffffffffffffffffffffffffffff1673ffffffffffffffffffffffffffffffffffffffff1681526020016000820160149054906101000a900467ffffffffffffffff1667ffffffffffffffff1667ffffffffffffffff16815260200160008201601c9054906101000a900460ff1615151515815250509050600073ffffffffffffffffffffffffffffffffffffffff16816000015173ffffffffffffffffffffffffffffffffffffffff161461303357809250505061306d565b612f1e565b5b505b6040517fdf2d9b4200000000000000000000000000000000000000000000000000000000815260040160405180910390fd5b919050565b600061307d82612de3565b905061309181600001516000846001613828565b6130a1600083836000015161283b565b600160076000836000015173ffffffffffffffffffffffffffffffffffffffff1673ffffffffffffffffffffffffffffffffffffffff16815260200190815260200160002060000160008282829054906101000a900467ffffffffffffffff160392506101000a81548167ffffffffffffffff021916908367ffffffffffffffff160217905550600160076000836000015173ffffffffffffffffffffffffffffffffffffffff1673ffffffffffffffffffffffffffffffffffffffff16815260200190815260200160002060000160108282829054906101000a900467ffffffffffffffff160192506101000a81548167ffffffffffffffff021916908367ffffffffffffffff16021790555080600001516006600084815260200190815260200160002060000160006101000a81548173ffffffffffffffffffffffffffffffffffffffff021916908373ffffffffffffffffffffffffffffffffffffffff160217905550426006600084815260200190815260200160002060000160146101000a81548167ffffffffffffffff021916908367ffffffffffffffff160217905550600160066000848152602001908152602001600020600001601c6101000a81548160ff0219169083151502179055506000600183019050600073ffffffffffffffffffffffffffffffffffffffff166006600083815260200190815260200160002060000160009054906101000a900473ffffffffffffffffffffffffffffffffffffffff1673ffffffffffffffffffffffffffffffffffffffff16141561338d5760025481101561338c5781600001516006600083815260200190815260200160002060000160006101000a81548173ffffffffffffffffffffffffffffffffffffffff021916908373ffffffffffffffffffffffffffffffffffffffff16021790555081602001516006600083815260200190815260200160002060000160146101000a81548167ffffffffffffffff021916908367ffffffffffffffff1602179055505b5b5081600073ffffffffffffffffffffffffffffffffffffffff16826000015173ffffffffffffffffffffffffffffffffffffffff167fddf252ad1be2c89b69c2b068fc378daa952ba7f163c4a11628f55a4df523b3ef60405160405180910390a46134008160000151600084600161382e565b6003600081548092919060010191905055505050565b613430828260405180602001604052806000815250613834565b5050565b60008060009054906101000a900473ffffffffffffffffffffffffffffffffffffffff169050816000806101000a81548173ffffffffffffffffffffffffffffffffffffffff021916908373ffffffffffffffffffffffffffffffffffffffff1602179055508173ffffffffffffffffffffffffffffffffffffffff168173ffffffffffffffffffffffffffffffffffffffff167f8be0079c531659141344cd1fd0a4f28419497f9722a3daafe3b4186f6b6457e060405160405180910390a35050565b6000808273ffffffffffffffffffffffffffffffffffffffff163b119050919050565b60008373ffffffffffffffffffffffffffffffffffffffff1663150b7a02613541612833565b8786866040518563ffffffff1660e01b815260040161356394939291906146b4565b602060405180830381600087803b15801561357d57600080fd5b505af19250505080156135ae57506040513d601f19601f820116820180604052508101906135ab9190614229565b60015b613628573d80600081146135de576040519150601f19603f3d011682016040523d82523d6000602084013e6135e3565b606091505b50600081511415613620576040517fd1a57ed600000000000000000000000000000000000000000000000000000000815260040160405180910390fd5b805181602001fd5b63150b7a0260e01b7bffffffffffffffffffffffffffffffffffffffffffffffffffffffff1916817bffffffffffffffffffffffffffffffffffffffffffffffffffffffff191614915050949350505050565b606060008214156136c3576040518060400160405280600181526020017f30000000000000000000000000000000000000000000000000000000000000008152509050613823565b600082905060005b600082146136f55780806136de90614c7b565b915050600a826136ee9190614a8f565b91506136cb565b60008167ffffffffffffffff811115613737577f4e487b7100000000000000000000000000000000000000000000000000000000600052604160045260246000fd5b6040519080825280601f01601f1916602001820160405280156137695781602001600182028036833780820191505090505b5090505b6000851461381c576001826137829190614b1a565b9150600a856137919190614cc4565b603061379d9190614a39565b60f81b8183815181106137d9577f4e487b7100000000000000000000000000000000000000000000000000000000600052603260045260246000fd5b60200101907effffffffffffffffffffffffffffffffffffffffffffffffffffffffffffff1916908160001a905350600a856138159190614a8f565b945061376d565b8093505050505b919050565b50505050565b50505050565b6138418383836001613846565b505050565b60006002549050600073ffffffffffffffffffffffffffffffffffffffff168573ffffffffffffffffffffffffffffffffffffffff1614156138b4576040517f2e07630000000000000000000000000000000000000000000000000000000000815260040160405180910390fd5b60008414156138ef576040517fb562e8dd00000000000000000000000000000000000000000000000000000000815260040160405180910390fd5b6138fc6000868387613828565b83600760008773ffffffffffffffffffffffffffffffffffffffff1673ffffffffffffffffffffffffffffffffffffffff16815260200190815260200160002060000160008282829054906101000a900467ffffffffffffffff160192506101000a81548167ffffffffffffffff021916908367ffffffffffffffff16021790555083600760008773ffffffffffffffffffffffffffffffffffffffff1673ffffffffffffffffffffffffffffffffffffffff16815260200190815260200160002060000160088282829054906101000a900467ffffffffffffffff160192506101000a81548167ffffffffffffffff021916908367ffffffffffffffff160217905550846006600083815260200190815260200160002060000160006101000a81548173ffffffffffffffffffffffffffffffffffffffff021916908373ffffffffffffffffffffffffffffffffffffffff160217905550426006600083815260200190815260200160002060000160146101000a81548167ffffffffffffffff021916908367ffffffffffffffff160217905550600081905060008582019050838015613ac65750613ac58773ffffffffffffffffffffffffffffffffffffffff166134f8565b5b15613b8c575b818773ffffffffffffffffffffffffffffffffffffffff16600073ffffffffffffffffffffffffffffffffffffffff167fddf252ad1be2c89b69c2b068fc378daa952ba7f163c4a11628f55a4df523b3ef60405160405180910390a4613b3b600088848060010195508861351b565b613b71576040517fd1a57ed600000000000000000000000000000000000000000000000000000000815260040160405180910390fd5b80821415613acc578260025414613b8757600080fd5b613bf8565b5b818060010192508773ffffffffffffffffffffffffffffffffffffffff16600073ffffffffffffffffffffffffffffffffffffffff167fddf252ad1be2c89b69c2b068fc378daa952ba7f163c4a11628f55a4df523b3ef60405160405180910390a480821415613b8d575b816002819055505050613c0e600086838761382e565b5050505050565b828054613c2190614c18565b90600052602060002090601f016020900481019282613c435760008555613c8a565b82601f10613c5c57803560ff1916838001178555613c8a565b82800160010185558215613c8a579182015b82811115613c89578235825591602001919060010190613c6e565b5b509050613c979190613cde565b5090565b6040518060600160405280600073ffffffffffffffffffffffffffffffffffffffff168152602001600067ffffffffffffffff1681526020016000151581525090565b5b80821115613cf7576000816000905550600101613cdf565b5090565b6000613d0e613d0984614958565b614933565b90508083825260208201905082856020860282011115613d2d57600080fd5b60005b85811015613d5d5781613d438882613e11565b845260208401935060208301925050600181019050613d30565b5050509392505050565b6000613d7a613d7584614984565b614933565b90508083825260208201905082856020860282011115613d9957600080fd5b60005b85811015613dc95781613daf8882613f2d565b845260208401935060208301925050600181019050613d9c565b5050509392505050565b6000613de6613de1846149b0565b614933565b905082815260208101848484011115613dfe57600080fd5b613e09848285614bd6565b509392505050565b600081359050613e2081615026565b92915050565b600082601f830112613e3757600080fd5b8135613e47848260208601613cfb565b91505092915050565b600082601f830112613e6157600080fd5b8135613e71848260208601613d67565b91505092915050565b600081359050613e898161503d565b92915050565b600081359050613e9e81615054565b92915050565b600081519050613eb381615054565b92915050565b600082601f830112613eca57600080fd5b8135613eda848260208601613dd3565b91505092915050565b60008083601f840112613ef557600080fd5b8235905067ffffffffffffffff811115613f0e57600080fd5b602083019150836001820283011115613f2657600080fd5b9250929050565b600081359050613f3c8161506b565b92915050565b600060208284031215613f5457600080fd5b6000613f6284828501613e11565b91505092915050565b60008060408385031215613f7e57600080fd5b6000613f8c85828601613e11565b9250506020613f9d85828601613e11565b9150509250929050565b600080600060608486031215613fbc57600080fd5b6000613fca86828701613e11565b9350506020613fdb86828701613e11565b9250506040613fec86828701613f2d565b9150509250925092565b6000806000806080858703121561400c57600080fd5b600061401a87828801613e11565b945050602061402b87828801613e11565b935050604061403c87828801613f2d565b925050606085013567ffffffffffffffff81111561405957600080fd5b61406587828801613eb9565b91505092959194509250565b6000806040838503121561408457600080fd5b600061409285828601613e11565b92505060206140a385828601613e7a565b9150509250929050565b600080604083850312156140c057600080fd5b60006140ce85828601613e11565b92505060206140df85828601613f2d565b9150509250929050565b6000602082840312156140fb57600080fd5b600082013567ffffffffffffffff81111561411557600080fd5b61412184828501613e26565b91505092915050565b6000806040838503121561413d57600080fd5b600083013567ffffffffffffffff81111561415757600080fd5b61416385828601613e26565b925050602083013567ffffffffffffffff81111561418057600080fd5b61418c85828601613e50565b9150509250929050565b6000602082840312156141a857600080fd5b600082013567ffffffffffffffff8111156141c257600080fd5b6141ce84828501613e50565b91505092915050565b6000602082840312156141e957600080fd5b60006141f784828501613e7a565b91505092915050565b60006020828403121561421257600080fd5b600061422084828501613e8f565b91505092915050565b60006020828403121561423b57600080fd5b600061424984828501613ea4565b91505092915050565b6000806020838503121561426557600080fd5b600083013567ffffffffffffffff81111561427f57600080fd5b61428b85828601613ee3565b92509250509250929050565b6000602082840312156142a957600080fd5b60006142b784828501613f2d565b91505092915050565b6142c981614b4e565b82525050565b6142d881614b4e565b82525050565b6142e781614b60565b82525050565b6142f681614b60565b82525050565b6000614307826149f6565b6143118185614a0c565b9350614321818560208601614be5565b61432a81614db1565b840191505092915050565b600061434082614a01565b61434a8185614a1d565b935061435a818560208601614be5565b61436381614db1565b840191505092915050565b600061437982614a01565b6143838185614a2e565b9350614393818560208601614be5565b80840191505092915050565b600081546143ac81614c18565b6143b68186614a2e565b945060018216600081146143d157600181146143e257614415565b60ff19831686528186019350614415565b6143eb856149e1565b60005b8381101561440d578154818901526001820191506020810190506143ee565b838801955050505b50505092915050565b600061442b602683614a1d565b915061443682614dc2565b604082019050919050565b600061444e601d83614a1d565b915061445982614e11565b602082019050919050565b6000614471601583614a1d565b915061447c82614e3a565b602082019050919050565b6000614494601383614a1d565b915061449f82614e63565b602082019050919050565b60006144b7600c83614a1d565b91506144c282614e8c565b602082019050919050565b60006144da600f83614a1d565b91506144e582614eb5565b602082019050919050565b60006144fd601783614a1d565b915061450882614ede565b602082019050919050565b6000614520602083614a1d565b915061452b82614f07565b602082019050919050565b6000614543601283614a1d565b915061454e82614f30565b602082019050919050565b6000614566601383614a1d565b915061457182614f59565b602082019050919050565b6000614589601483614a1d565b915061459482614f82565b602082019050919050565b60006145ac601f83614a1d565b91506145b782614fab565b602082019050919050565b60006145cf601483614a1d565b91506145da82614fd4565b602082019050919050565b60006145f2600c83614a1d565b91506145fd82614ffd565b602082019050919050565b60608201600082015161461e60008501826142c0565b5060208201516146316020850182614659565b50604082015161464460408501826142de565b50505050565b61465381614bb8565b82525050565b61466281614bc2565b82525050565b6000614674828661439f565b9150614680828561436e565b915061468c828461436e565b9150819050949350505050565b60006020820190506146ae60008301846142cf565b92915050565b60006080820190506146c960008301876142cf565b6146d660208301866142cf565b6146e3604083018561464a565b81810360608301526146f581846142fc565b905095945050505050565b600060208201905061471560008301846142ed565b92915050565b600060208201905081810360008301526147358184614335565b905092915050565b600060208201905081810360008301526147568161441e565b9050919050565b6000602082019050818103600083015261477681614441565b9050919050565b6000602082019050818103600083015261479681614464565b9050919050565b600060208201905081810360008301526147b681614487565b9050919050565b600060208201905081810360008301526147d6816144aa565b9050919050565b600060208201905081810360008301526147f6816144cd565b9050919050565b60006020820190508181036000830152614816816144f0565b9050919050565b6000602082019050818103600083015261483681614513565b9050919050565b6000602082019050818103600083015261485681614536565b9050919050565b6000602082019050818103600083015261487681614559565b9050919050565b600060208201905081810360008301526148968161457c565b9050919050565b600060208201905081810360008301526148b68161459f565b9050919050565b600060208201905081810360008301526148d6816145c2565b9050919050565b600060208201905081810360008301526148f6816145e5565b9050919050565b60006060820190506149126000830184614608565b92915050565b600060208201905061492d600083018461464a565b92915050565b600061493d61494e565b90506149498282614c4a565b919050565b6000604051905090565b600067ffffffffffffffff82111561497357614972614d82565b5b602082029050602081019050919050565b600067ffffffffffffffff82111561499f5761499e614d82565b5b602082029050602081019050919050565b600067ffffffffffffffff8211156149cb576149ca614d82565b5b6149d482614db1565b9050602081019050919050565b60008190508160005260206000209050919050565b600081519050919050565b600081519050919050565b600082825260208201905092915050565b600082825260208201905092915050565b600081905092915050565b6000614a4482614bb8565b9150614a4f83614bb8565b9250827fffffffffffffffffffffffffffffffffffffffffffffffffffffffffffffffff03821115614a8457614a83614cf5565b5b828201905092915050565b6000614a9a82614bb8565b9150614aa583614bb8565b925082614ab557614ab4614d24565b5b828204905092915050565b6000614acb82614bb8565b9150614ad683614bb8565b9250817fffffffffffffffffffffffffffffffffffffffffffffffffffffffffffffffff0483118215151615614b0f57614b0e614cf5565b5b828202905092915050565b6000614b2582614bb8565b9150614b3083614bb8565b925082821015614b4357614b42614cf5565b5b828203905092915050565b6000614b5982614b98565b9050919050565b60008115159050919050565b60007fffffffff0000000000000000000000000000000000000000000000000000000082169050919050565b600073ffffffffffffffffffffffffffffffffffffffff82169050919050565b6000819050919050565b600067ffffffffffffffff82169050919050565b82818337600083830152505050565b60005b83811015614c03578082015181840152602081019050614be8565b83811115614c12576000848401525b50505050565b60006002820490506001821680614c3057607f821691505b60208210811415614c4457614c43614d53565b5b50919050565b614c5382614db1565b810181811067ffffffffffffffff82111715614c7257614c71614d82565b5b80604052505050565b6000614c8682614bb8565b91507fffffffffffffffffffffffffffffffffffffffffffffffffffffffffffffffff821415614cb957614cb8614cf5565b5b600182019050919050565b6000614ccf82614bb8565b9150614cda83614bb8565b925082614cea57614ce9614d24565b5b828206905092915050565b7f4e487b7100000000000000000000000000000000000000000000000000000000600052601160045260246000fd5b7f4e487b7100000000000000000000000000000000000000000000000000000000600052601260045260246000fd5b7f4e487b7100000000000000000000000000000000000000000000000000000000600052602260045260246000fd5b7f4e487b7100000000000000000000000000000000000000000000000000000000600052604160045260246000fd5b6000601f19601f8301169050919050565b7f4f776e61626c653a206e6577206f776e657220697320746865207a65726f206160008201527f6464726573730000000000000000000000000000000000000000000000000000602082015250565b7f7573657220616c726561647920636c61696d6564206769766561776179000000600082015250565b7f41646472657373206c696d697420726561636865640000000000000000000000600082015250565b7f50726573616c65206e6f74206f6e676f696e6700000000000000000000000000600082015250565b7f57616c6c6574204572726f720000000000000000000000000000000000000000600082015250565b7f4e6f742077686974656c69737465640000000000000000000000000000000000600082015250565b7f5075626c69632053616c65206e6f74206f6e676f696e67000000000000000000600082015250565b7f4f776e61626c653a2063616c6c6572206973206e6f7420746865206f776e6572600082015250565b7f4e6f6e206578697374656e7420546f6b656e0000000000000000000000000000600082015250565b7f61727261792073697a65206d69736d6174636800000000000000000000000000600082015250565b7f45746865722076616c7565206d69736d61746368000000000000000000000000600082015250565b7f5265656e7472616e637947756172643a207265656e7472616e742063616c6c00600082015250565b7f537570706c79206c696d69742072656163686564000000000000000000000000600082015250565b7f5a65726f2042616c616e63650000000000000000000000000000000000000000600082015250565b61502f81614b4e565b811461503a57600080fd5b50565b61504681614b60565b811461505157600080fd5b50565b61505d81614b6c565b811461506857600080fd5b50565b61507481614bb8565b811461507f57600080fd5b5056fea264697066735822122034c636773e5d40919247319d52e4a3eacebd8e4789fd75e6988be49acbd9575d64736f6c63430008040033",
  "linkReferences": {},
  "deployedLinkReferences": {}
}